:100000000C9463000C948B000C948B000C949C0556
:100010000C949C050C949C050C948B000C948B0008
:100020000C948B000C948B000C948B000C948B0024
:100030000C948B000C948B000C948B000C948B0014
:100040000C94FA040C948B000C946A050C944405EF
:100050000C948B000C948B000C948B000C948B00F4
:100060000C948B000C948B0000000008000201002F
:100070000003040700000000000000000000000072
:1000800023002600290000000000240027002A0089
:1000900000000000250028002B00040404040404D0
:1000A0000404020202020202030303030303010227
:1000B00004081020408001020408102001020408F6
:1000C000102060069D0C11241FBECFEFD8E0DEBFCC
:1000D000CDBF11E0A0E0B1E0E4E0FFE102C0059097
:1000E0000D92A038B107D9F722E0A0E8B1E001C035
:1000F0001D92AC3FB207E1F710E0C2E6D0E004C0C9
:100100002197FE010E944D0FC136D107C9F70E9409
:10011000C5070C94750F0C9400000F931F93CF9399
:10012000DF93C091C002E1ECF2E0CD3211F0E0ECDF
:10013000F2E08F0120E030E0A901D801DD918D01CE
:1001400080ED8D0F8A3090F4AAE0B0E00E94530F4A
:100150002D2FDD0F330B440B550B260F371F481F78
:10016000591F2053310941095109E7CFA4E6B0E0F6
:100170000E94530FAB01BC01DF01819190ED980FFC
:100180009A30D0F38E3259F511968C91119790EDEB
:10019000980F9A3020F5082E000C990BC0972AE092
:1001A000289F8001299F100D1124012E000C220B85
:1001B000330B400F511F621F731F12968C9190EDED
:1001C000980F9A3060F4082E000C990BC097092EF6
:1001D000000CAA0BBB0B480F591F6A1F7B1FCD32A7
:1001E00039F470956095509541955F4F6F4F7F4FF3
:1001F000CB01BA01DF91CF911F910F9108954F92DA
:100200005F926F927F928F929F92AF92BF92CF92A6
:10021000DF92EF92FF921F93CF93DF93C0ECD2E077
:10022000FE01C12CD12C7601119180ED810F8A3015
:10023000A8F4AAE0B0E0A70196010E94530FC12ED6
:10024000110FDD08EE08FF08C60ED71EE81EF91EC6
:1002500080E3C81AD108E108F108E6CFC701B6016A
:1002600024E630E040E050E00E942B0F9B01AC01FF
:1002700060EA76E881E090E00E941B0F4B015C0190
:100280009E01899190ED980F9A30D0F38E3221F52E
:10029000E901219680E1482E87E2582E612C712CCD
:1002A000A99180ED8A0F8A30B8F40A2E000CBB0B9E
:1002B000D097A30192010E945E0F860E971EA81E82
:1002C000B91EC301B2012AE030E040E050E00E94D4
:1002D0002B0F29013A01E4CFC701B60124E630E033
:1002E00040E050E00E942B0F60E472E48FE090E069
:1002F0000E941B0F6B017C01C501B4016D5F7F4F34
:100300008F4F9F4F26E030E040E050E00E942B0FDF
:10031000C701B601620F731F841F951FDF91CF9134
:100320001F91FF90EF90DF90CF90BF90AF909F9084
:100330008F907F906F905F904F9008953FB7F894A3
:100340008091C9019091CA01A091CB01B091CC01DB
:1003500026B5A89B05C02F3F19F00196A11DB11D20
:100360003FBFBA2FA92F982F8827BC01CD01620F5C
:10037000711D811D911D42E0660F771F881F991F17
:100380004A95D1F708958F929F92AF92BF92CF92E4
:10039000DF92EF92FF924B015C010E949E016B0184
:1003A0007C010E949E016C197D098E099F09683E9F
:1003B000734081059105A8F321E0821A9108A108F4
:1003C000B10888EEC80E83E0D81EE11CF11C811430
:1003D0009104A104B10429F7FF90EF90DF90CF9032
:1003E000BF90AF909F908F9008952FB7F894609131
:1003F000C5017091C6018091C7019091C8012FBFBE
:100400000895AF92BF92CF92DF92EF92FF920F9337
:100410001F93CF93DF936C017B018B01040F151F9A
:10042000EB015E01AE18BF08C017D10759F0699102
:10043000D601ED91FC910190F081E02DC601099566
:10044000892B79F7C501DF91CF911F910F91FF9013
:10045000EF90DF90CF90BF90AF900895FC01538D47
:10046000448D252F30E0842F90E0821B930B54178E
:1004700010F0CF96089501970895FC01918D828D1B
:10048000981761F0A28DAE0FBF2FB11D5D968C91B4
:10049000928D9F5F9F73928F90E008958FEF9FEFF3
:1004A0000895FC01918D828D981731F0828DE80FAF
:1004B000F11D858D90E008958FEF9FEF0895FC0169
:1004C000918D228D892F90E0805C9F4F821B910936
:1004D0008F73992708958DEC91E00E945F0221E0CF
:1004E000892B09F420E0822F089580E090E0892B89
:1004F00029F00E946B0281110C9400000895FC0108
:10050000A48DA80FB92FB11DA35ABF4F2C91848D74
:1005100090E001968F739927848FA689B7892C93D1
:10052000A089B1898C91837080648C93938D848D24
:10053000981306C00288F389E02D80818F7D808327
:100540000895EF92FF920F931F93CF93DF93EC01E7
:1005500081E0888F9B8D8C8D98131AC0E889F9896A
:10056000808185FF15C09FB7F894EE89FF8960836D
:10057000E889F98980818370806480839FBF81E0EE
:1005800090E0DF91CF911F910F91FF90EF90089530
:10059000F62E0B8D10E00F5F1F4F0F731127E02E0B
:1005A0008C8D8E110CC00FB607FCFACFE889F98943
:1005B000808185FFF5CFCE010E947F02F1CFEB8DC8
:1005C000EC0FFD2FF11DE35AFF4FF0829FB7F89417
:1005D0000B8FEA89FB8980818062CFCFCF93DF9335
:1005E000EC01888D8823B9F0AA89BB89E889F9894B
:1005F0008C9185FD03C0808186FD0DC00FB607FC80
:10060000F7CF8C9185FFF2CF808185FFEDCFCE01B2
:100610000E947F02E9CFDF91CF9108952091C2011E
:100620003091C3012817390771F49091C00180916E
:10063000C101981741F0E091C001F0E0E058FE4F91
:10064000808190E008958FEF9FEF08950895EF92D5
:10065000FF920F931F93CF93DF93DC015C96ED9095
:10066000FC905D97E114F10479F481E090E0139639
:100670009C938E93129790E080E0DF91CF911F9131
:100680000F91FF90EF9008955196ED91FC91529744
:1006900050968C915097982F90950FB75E962C910D
:1006A0005E97122F127021FD6095F894208111231E
:1006B00019F1282B2083E7012197F1F728E0462F35
:1006C00050E0308160FF1AC0382B3083E70121975A
:1006D000F1F7BA0175956795215089F7112381F0DB
:1006E0008081892380830FBF5C968D919C910197B7
:1006F000F1F781E090E0C1CF2923DCCF3923E5CFAA
:100700009081892BEFCF2091C2013091C30128172E
:10071000390761F48091C1012091C00190E0805CB3
:100720009F4F821B91098F739927089590E080E075
:1007300008952091C2013091C30128173907B9F4F7
:100740009091C0018091C101981789F0E091C0019A
:10075000F0E0E058FE4F80812091C00130E02F5F33
:100760003F4F2F7333272093C00190E008958FEF00
:100770009FEF089590E080E00895FB010190002034
:10078000E9F73197AF01461B570BDC01ED91FC9166
:100790000280F381E02D09948F929F92AF92BF92D5
:1007A000EF92FF920F931F93CF93DF93CDB7DEB7F6
:1007B000A1970FB6F894DEBF0FBECDBF7C01FA0142
:1007C000CB0119A2223008F42AE08E010F5D1F4FE1
:1007D000822E912CB12CA12CBF01A50194010E9465
:1007E0002B0FF901CA016A300CF5605DD8016E93D8
:1007F0008D01232B242B252B79F790E080E0109797
:1008000021F0BD01C7010E94BD03A1960FB6F89467
:10081000DEBF0FBECDBFDF91CF911F910F91FF9033
:10082000EF90BF90AF909F908F900895695CDECF5E
:100830004F925F926F927F928F929F92AF92BF92F0
:10084000CF92DF92EF92FF920F931F93CF936B01A2
:100850007C01742EAC019B010E94160F64E271E0D2
:10086000811126C046015701E894B7F82FEF3FEFFA
:100870004FE75FE7C501B4010E94160F81110CC05C
:100880002FEF3FEF4FE75FE7C501B4010E944C0D2A
:1008900068E271E0181664F02FEF3FEF4FE75FE476
:1008A000C701B6010E94A40E1816ACF46CE271E008
:1008B0008DED92E0CF911F910F91FF90EF90DF901F
:1008C000CF90BF90AF909F908F907F906F905F90F0
:1008D0004F900C94BD032FEF3FEF4FE75FECC70144
:1008E000B6010E944C0D87FDE1CF20E030E0A90168
:1008F000C701B6010E944C0D10E000E087FF0AC05E
:100900006DE28DED92E00E9427038C01F7FAF094DE
:10091000F7F8F094C0E060E070E080E09FE37C16C0
:1009200041F020E030E040E251E40E94510DCF5F01
:10093000F6CFA70196010E94E00C2B013C010E941A
:10094000C30D4B015C012AE0BC01A4018DED92E0D6
:100950000E94CC037C01E00EF11ECC23D1F1C50135
:10096000B4010E94F20D9B01AC01C301B2010E94CF
:10097000DF0C4B015C016EE28DED92E00E942703DB
:10098000E80EF91EC15028F120E030E040E251E4C9
:10099000C501B4010E94A90E2B013C010E94C30DA8
:1009A0004B01B12CA12C2AE0B501A4018DED92E000
:1009B0000E94CC03E80EF91EC501B4010E94F20D9D
:1009C0009B01AC01C301B2010E94DF0C4B015C0131
:1009D000D9CFC701CF911F910F91FF90EF90DF907A
:1009E000CF90BF90AF909F908F907F906F905F90CF
:1009F0004F9008951F920F920FB60F9211242F93CC
:100A00003F938F939F93AF93BF938091C501909134
:100A1000C601A091C701B091C8013091C40123E083
:100A2000230F2D3758F50196A11DB11D2093C40148
:100A30008093C5019093C601A093C701B093C801EC
:100A40008091C9019091CA01A091CB01B091CC01D4
:100A50000196A11DB11D8093C9019093CA01A09375
:100A6000CB01B093CC01BF91AF919F918F913F91FA
:100A70002F910F900FBE0F901F90189526E8230F0F
:100A80000296A11DB11DD2CF1F920F920FB60F92E9
:100A900011242F933F934F935F936F937F938F9383
:100AA0009F93AF93BF93EF93FF938DEC91E00E94E0
:100AB0007F02FF91EF91BF91AF919F918F917F91B5
:100AC0006F915F914F913F912F910F900FBE0F90BB
:100AD0001F9018951F920F920FB60F9211242F930B
:100AE0008F939F93EF93FF93E091DD01F091DE01EF
:100AF0008081E091E301F091E40182FD1BC09081CF
:100B00008091E6018F5F8F732091E701821741F09A
:100B1000E091E601F0E0E353FE4F958F8093E6010C
:100B2000FF91EF919F918F912F910F900FBE0F909A
:100B30001F9018958081F4CF1F920F920FB60F92DD
:100B400011242F933F934F935F936F937F938F93D2
:100B50009F93AF93BF93EF93FF93E091C201F09106
:100B6000C301309749F0A685B7858585968D91FF9D
:100B700014C09C918923A1F4FF91EF91BF91AF9193
:100B80009F918F917F916F915F914F913F912F91A5
:100B90000F900FBE0F901F9018959C91892361F7BD
:100BA000A389B4899C918589809589238C938689B2
:100BB00097890197F1F7608D718DA685B785558569
:100BC00038E020E0CB010197F1F7822F90E0959576
:100BD0008795282F4C91452309F02068315091F7D3
:100BE000868D81FD20958091C10190E001968F73E3
:100BF00099273091C001381799F0A091C101B0E058
:100C0000A058BE4F2C938093C101828D938D019784
:100C1000F1F7A389B4898C919589892B8C93ACCFFA
:100C2000868D8160868FF1CF90E0FC01E859FF4FFF
:100C30002491FC01E255FF4F3491FC01E656FF4F31
:100C4000E491EE23C9F0222339F0233001F1A8F416
:100C5000213019F1223029F1F0E0EE0FFF1FE057AB
:100C6000FF4FA591B4918FB7F894EC91611126C014
:100C700030953E233C938FBF08952730A9F028304C
:100C8000C9F0243049F7809180008F7D03C08091A6
:100C900080008F7780938000DFCF84B58F7784BD0D
:100CA000DBCF84B58F7DFBCF8091B0008F778093B1
:100CB000B000D2CF8091B0008F7DF9CF3E2BDACF3C
:100CC0000F931F93CF93DF931092D0011092CF0117
:100CD00088EE93E0A0E0B0E08093D1019093D20140
:100CE000A093D301B093D40124E031E03093CE013E
:100CF0002093CD0125EC30E03093DA012093D90127
:100D000024EC30E03093DC012093DB0120EC30E078
:100D10003093DE012093DD0121EC30E03093E001DF
:100D20002093DF0122EC30E03093E2012093E101D7
:100D300026EC30E03093E4012093E3011092E601C9
:100D40001092E7011092E8011092E9011092E0027E
:100D50001092DF028093E1029093E202A093E302FB
:100D6000B093E40286E191E09093DE028093DD028D
:100D70001092F4021092F3021092F6021092F50211
:100D80001092F8021092F7021092FA021092F902F1
:100D90006091FB026E7F6D7F6093FB0266956170D0
:100DA00081E0682788E00E94140646EB50E0FA01D3
:100DB000649182EA90E0FC012491222399F030E0D2
:100DC000220F331FF901EA57FF4FA591B491F901A2
:100DD000E057FF4F259134912FB7F8943C91632B46
:100DE0006C932FBFFA0144914093ED02FC01849172
:100DF000E82FF0E0EE0FFF1FE057FF4F8591949131
:100E00009093EF028093EE0205EB10E0F80124913D
:100E1000C1EAD0E0FE0184918823C9F090E0880FF8
:100E2000991FFC01EA57FF4FA591B491FC01E057CF
:100E3000FF4F459154913FB7F8949C91822F809534
:100E400098239C93FA019081892380833FBF8091EE
:100E5000FB0281FD04C061E087E00E94140687E088
:100E60008093E902F80104910093EA02FE01C49123
:100E7000EC2FF0E0EE0FFF1FE458FF4F85919491A7
:100E80009093EC028093EB024FEF5FEFBA01409337
:100E90006A0250936B0260936C0270936D02109221
:100EA00072021092730210927402109275028FEF08
:100EB00099ECAAE9BBE380937A0290937B02A0931A
:100EC0007C02B0937D028093820290938302A09370
:100ED0008402B093850280938A0290938B02A09340
:100EE0008C02B0938D028093920290939302A09310
:100EF0009402B093950280939A0290939B02A093E0
:100F00009C02B0939D024093A2025093A30260936F
:100F1000A4027093A5028FEF90E09093AB028093B0
:100F2000AA024093AE025093AF026093B002709356
:100F3000B1024093B6025093B7026093B802709327
:100F4000B9021092BE021092BF0282E08093CF02DB
:100F50001092D0021092D1021092D2021092D302BB
:100F60001092D4021092D5021092D6021092D8029A
:100F70001092D7021092DA021092D9021092C00297
:100F8000DF91CF911F910F910895789484B582607D
:100F900084BD84B5816084BD85B5826085BD85B51D
:100FA000816085BD80916E00816080936E0010929B
:100FB0008100809181008260809381008091810016
:100FC00081608093810080918000816080938000A7
:100FD0008091B10084608093B1008091B000816005
:100FE0008093B00080917A00846080937A00809131
:100FF0007A00826080937A0080917A008160809389
:101000007A0080917A00806880937A001092C10003
:10101000E091DD01F091DE0182E08083E091D90171
:10102000F091DA011082E091DB01F091DC018FECAC
:1010300080831092E501E091E101F091E20186E008
:101040008083E091DF01F091E00180818061808305
:10105000E091DF01F091E001808188608083E09180
:10106000DF01F091E001808180688083E091DF0101
:10107000F091E00180818F7D80831092F8021092C0
:10108000F7021092F6021092F5021092F4021092FA
:10109000F3028DE991E09093FA028093F902909126
:1010A000E902963108F047C02DEB30E03093F402AE
:1010B0002093F3022BE931E03093F6022093F502FE
:1010C0002CE231E03093F8022093F702209168007F
:1010D00084E0983048F031E09E3008F430E081E060
:1010E00001C0880F3A95EAF7822B809368002DE6BD
:1010F00030E0983050F02BE630E09E3030F02CE6B7
:1011000030E0963110F030E020E03093F10220938F
:10111000F002292F30E0983008F01EC181E001C0B4
:10112000880F9A95EAF78093F2028091F9029091E4
:10113000FA020197F1F78091F7029091F802892B5A
:1011400049F1E091C201F091C30122E0ED3DF207C7
:1011500009F1309739F0A389B4899C9185898095EC
:1011600089238C938091FB028E7F8093FB021092E7
:10117000C1011092C0018DED92E09093C301809364
:10118000C201E091F002F091F10280819091F202AF
:10119000892B8083812C912C540100E010E092E097
:1011A000392E222423940E94F5016B017C01712CBD
:1011B0000E94F5016C197D098E099F09683E7340F4
:1011C0008105910508F4B1C1772009F4ACC04090C5
:1011D0007A0250907B0260907C0270907D02C090F9
:1011E0008202D0908302E0908402F0908502809188
:1011F000B6029091B702A091B802B091B9028F3FA8
:101200009F4FAF4FBF4F11F00E94F501FFEF4F16F8
:10121000F9EC5F06FAE96F06FBE37F0609F47EC38B
:10122000C301B2010E94F40D20E034E244E759E426
:101230000E94510D2B013C01C701B6010E94F40D23
:1012400020E034E244E759E40E94510D6B017C0137
:101250006CE371E08DED92E00E94BD0360E971E006
:1012600080E090E00E94C30167E471E08DED92E0C0
:101270000E94BD0363E671E08DED92E00E94BD0324
:101280006CE271E080E090E00E94C30166E671E0EC
:101290008DED92E00E94BD0320E030E04AE754E487
:1012A000C301B2010E944C0D811103C0412C512C8D
:1012B000320146E0C301B2010E94180462E771E006
:1012C0008DED92E00E94BD0320E030E04AE754E457
:1012D000C701B6010E944C0D811103C0C12CD12C55
:1012E000760146E0C701B6010E94180468EC70E080
:1012F00080E090E00E94C3016AE18DED92E00E94DF
:10130000270363E671E08DED92E00E94BD0368EC77
:1013100070E080E090E00E94C30163E671E08DED33
:1013200092E00E94BD032AE0B501A4018DEC91E09A
:101330000E94CC0363E671E08DEC91E00E94BD0356
:101340000115110509F42FCF0E946B02882309F4BF
:101350002ACF0E94000027CF9E3040F42850310948
:1013600081E001C0880F2A95EAF7DDCE2E503109C1
:10137000F7CFCA3209F405C1CC3209F0BBC2809163
:10138000BE028C278093BE02FCC09091D002F0E098
:10139000E054FD4F1082D091BF02DD2309F46AC1F1
:1013A0002091C002822F022E000C990B3FEB320FCE
:1013B000363008F0EBC0C7978295807F9091C102CC
:1013C000292F092E000C330B4FEB490F463008F044
:1013D000E5C027533109820F9091BE02891340C1A5
:1013E000D091D202DD2309F4CFC08091D702909131
:1013F000D80201969093D8028093D7028091B202CE
:101400009091B302A091B402B091B5028093AE0264
:101410009093AF02A093B002B093B1028091BA0250
:101420009091BB02A091BC02B091BD028093B60224
:101430009093B702A093B802B093B9028091CF0203
:10144000882309F4B4C0813009F060C080916E0235
:1014500090916F02A0917002B091710280936A0224
:1014600090936B02A0936C02B0936D028091760210
:1014700090917702A0917802B091790280937202E4
:1014800090937302A0937402B093750280917E02D0
:1014900090917F02A0918002B091810280937A02A4
:1014A00090937B02A0937C02B0937D028091860290
:1014B00090918702A0918802B09189028093820264
:1014C00090938302A0938402B09385028091960248
:1014D00090919702A0919802B09199028093920204
:1014E00090939302A0939402B093950280919E02F0
:1014F00090919F02A091A002B091A10280939A02C4
:1015000090939B02A0939C02B0939D028091D00285
:101510008F5F8093D0021092D10281E0CA3209F02D
:1015200080E08093BF02D1117D2E8DEC91E00E946E
:101530005F02892B09F43CCE8DEC91E00E943D02C4
:10154000C82F8091D3029091D402A091D502B0917E
:10155000D6020196A11DB11D8093D3029093D402AF
:10156000A093D502B093D602C43209F4B6C1E0917B
:10157000D102C5320CF0FDCECA3019F0CD3009F0E1
:10158000B9C1EF3008F401CFD0E0C0CF21562630EA
:1015900018F48755910910CFC0970ECF9156963009
:1015A00018F42755310917CF2053310914CF8091F2
:1015B0008E0290918F02A0919002B091910280933F
:1015C0008A0290938B02A0938C02B0938D0280913B
:1015D0006E0290916F02A0917002B091710280939F
:1015E0006A0290936B02A0936C02B0936D0280919B
:1015F0007E0290917F02A0918002B091810280933F
:101600007A0290937B02A0937C02B0937D0280913A
:10161000860290918702A0918802B09189028093FE
:10162000820290938302A0938402B09385028091FA
:10163000AC029091AD029093AB028093AA0280918C
:10164000A6029091A702A091A802B091A90280934E
:10165000A2029093A302A093A402B093A50256CF36
:101660008091D9029091DA0201969093DA028093E8
:10167000D9028ACF91111CC040EC52E0A0E3B1E046
:10168000CA01FC012191CF01222309F450C13D91EF
:101690002317B9F3A6E3B1E0FA018191AF018823E2
:1016A00009F448C19D918917B9F33092CF022ECF2A
:1016B000E091CF02E23009F467CF8091C002882325
:1016C00009F462CF20E2E29FF0011124E92B319767
:1016D000E932F10508F01ACFE059F44F0C944D0FA0
:1016E000B60BD10BE60B010C0C0C460C4D0C570C39
:1016F000620C860A860A860A860A860A860A860A8C
:10170000860A860A860A860A860A860A860A860A59
:10171000860A860A860A860A860A860A860A860A49
:10172000B60BCB0BD10BE60B010C0C0C270C320CBF
:10173000990BE0ECF2E020E030E0A901519080ED5F
:10174000850D8A3008F099C0AAE0B0E00E94530FDE
:10175000252D550C330B440B550B260F371F481FF7
:10176000591F2053310941095109E8CF0E948D00CA
:1017700060936E0270936F02809370029093710277
:101780000E94F5016093B2027093B3028093B40299
:101790009093B502BBCE91E0813409F47BC090E018
:1017A00079C00E94FF0060937E0270937F02809355
:1017B0008002909381020E94F5016093BA027093B7
:1017C000BB028093BC029093BD02A0CE833509F08A
:1017D000DBCE80917E0290917F02A0918002B09139
:1017E0008102B095A095909581959F4FAF4FBF4FC7
:1017F00080937E0290937F02A0938002B093810237
:1018000085CE0E94FF0060938602709387028093CA
:101810008802909389027ACE873509F0B5CE8091FF
:10182000860290918702A0918802B0918902B095BA
:10183000A095909581959F4FAF4FBF4F80938602A3
:1018400090938702A0938802B09389025FCE0E9492
:101850008D00609396027093970280939802909304
:10186000990254CE0E948D0060939E0270939F0255
:101870008093A0029093A10249CE209376023093E8
:101880007702409378025093790240CE91E0813301
:101890000CF485CF9093D20239CE80EC92E00E9476
:1018A000B90C99279093AD028093AC022FCE0E9481
:1018B0008D006093A6027093A7028093A802909374
:1018C000A90224CE0E948D0060938E0270938F0235
:1018D000809390029093910219CE1092D1021092AF
:1018E000D0021092BE023092CF021092BF0210922C
:1018F000D2021BCEEE3040F481E08E0F8093D102F5
:10190000F0E0E054FD4FC0838091BF0281110DCE05
:101910008091BE02C827C093BE0207CE412C512C35
:101920008AE7682E84E4782E7301620191CC2092BC
:10193000CF02ECCD1092CF02E9CD86E191E09093F9
:10194000DE028093DD028091C2019091C3018D5D22
:10195000924071F4E091F002F091F1029081809157
:10196000F2028095892380831092C3011092C201F4
:101970000895FC0188279927E89421912032E9F302
:10198000293010F02E30C8F32B3241F02D3239F4CB
:10199000689404C00E94D70C820F911D219120539E
:1019A0002A30C0F31EF4909581959F4F08957AE0F8
:1019B000979F902D879F802D910D11240895505849
:1019C000BB27AA270E94F70C0C946A0E0E945C0E9B
:1019D00038F00E94630E20F039F49F3F19F426F48A
:1019E0000C94590E0EF4E095E7FB0C94530EE92F7E
:1019F0000E947B0E58F3BA17620773078407950796
:101A000020F079F4A6F50C949D0E0EF4E0950B2EC3
:101A1000BA2FA02D0B01B90190010C01CA01A00140
:101A20001124FF27591B99F0593F50F4503E68F19B
:101A30001A16F040A22F232F342F4427585FF3CFDC
:101A4000469537952795A795F0405395C9F77EF4AD
:101A50001F16BA0B620B730B840BBAF09150A1F0F6
:101A6000FF0FBB1F661F771F881FC2F70EC0BA0F7C
:101A7000621F731F841F48F4879577956795B79504
:101A8000F7959E3F08F0B0CF9395880F08F09927FF
:101A9000EE0F9795879508950E942F0E08F481E028
:101AA00008950E94650D0C946A0E0E94630E58F012
:101AB0000E945C0E40F029F45F3F29F00C94530E15
:101AC00051110C949E0E0C94590E0E947B0E68F3DB
:101AD0009923B1F3552391F3951B550BBB27AA27E7
:101AE00062177307840738F09F5F5F4F220F331F21
:101AF000441FAA1FA9F335D00E2E3AF0E0E832D0E9
:101B000091505040E695001CCAF72BD0FE2F29D0EB
:101B1000660F771F881FBB1F261737074807AB07BD
:101B2000B0E809F0BB0B802DBF01FF2793585F4F32
:101B30003AF09E3F510578F00C94530E0C949E0E93
:101B40005F3FE4F3983ED4F3869577956795B79514
:101B5000F7959F5FC9F7880F911D9695879597F91F
:101B60000895E1E0660F771F881FBB1F6217730798
:101B70008407BA0720F0621B730B840BBA0BEE1FAD
:101B800088F7E09508950E94830E88F09F5798F09B
:101B9000B92F9927B751B0F0E1F0660F771F881F72
:101BA000991F1AF0BA95C9F714C0B13091F00E948C
:101BB0009D0EB1E008950C949D0E672F782F882715
:101BC000B85F39F0B93FCCF3869577956795B395B3
:101BD000D9F73EF490958095709561957F4F8F4F22
:101BE0009F4F0895E89409C097FB3EF49095809527
:101BF000709561957F4F8F4F9F4F9923A9F0F92FD3
:101C000096E9BB279395F695879577956795B79550
:101C1000F111F8CFFAF4BB0F11F460FF1BC06F5F36
:101C20007F4F8F4F9F4F16C0882311F096E911C048
:101C3000772321F09EE8872F762F05C0662371F069
:101C400096E8862F70E060E02AF09A95660F771F7D
:101C5000881FDAF7880F9695879597F90895990F59
:101C60000008550FAA0BE0E8FEEF16161706E80766
:101C7000F907C0F012161306E407F50798F0621B87
:101C8000730B840B950B39F40A2661F0232B242B5C
:101C9000252B21F408950A2609F4A140A6958FEF7B
:101CA000811D811D089597F99F6780E870E060E0CD
:101CB00008959FEF80EC089500240A9416161706E5
:101CC00018060906089500240A941216130614062D
:101CD00005060895092E0394000C11F4882352F090
:101CE000BB0F40F4BF2B11F460FF04C06F5F7F4F48
:101CF0008F4F9F4F089557FD9058440F551F59F02F
:101D00005F3F71F04795880F97FB991F61F09F3FE8
:101D100079F087950895121613061406551FF2CF11
:101D20004695F1DF08C0161617061806991FF1CF61
:101D300086957105610508940895E894BB27662788
:101D40007727CB0197F908950E942F0E08F48FEFA3
:101D500008950E94BC0E0C946A0E0E945C0E38F02E
:101D60000E94630E20F0952311F00C94530E0C94F6
:101D7000590E11240C949E0E0E947B0E70F3959FB9
:101D8000C1F3950F50E0551F629FF001729FBB2772
:101D9000F00DB11D639FAA27F00DB11DAA1F649F0E
:101DA0006627B00DA11D661F829F2227B00DA11DC1
:101DB000621F739FB00DA11D621F839FA00D611D47
:101DC000221F749F3327A00D611D231F849F600D68
:101DD000211D822F762F6A2F11249F5750409AF091
:101DE000F1F088234AF0EE0FFF1FBB1F661F771F1D
:101DF000881F91505040A9F79E3F510580F00C94E8
:101E0000530E0C949E0E5F3FE4F3983ED4F38695F8
:101E100077956795B795F795E7959F5FC1F7FE2B87
:101E2000880F911D9695879597F908950E942F0E1A
:101E3000880B990B0895DB018F939F930E94530F9A
:101E4000BF91AF91A29F800D911DA39F900DB29F56
:101E5000900D11240895A1E21A2EAA1BBB1BFD01AF
:101E60000DC0AA1FBB1FEE1FFF1FA217B307E40779
:101E7000F50720F0A21BB30BE40BF50B661F771FD1
:101E8000881F991F1A9469F76095709580959095B1
:101E90009B01AC01BD01CF010895EE0FFF1F05901E
:101EA000F491E02D09940E94660FA59F900DB49FB8
:101EB000900DA49F800D911D11240895B7FF0C94DF
:101EC000530F0E94530F821B930B0895A29FB001E2
:101ED000B39FC001A39F700D811D1124911DB29F5E
:101EE000700D811D1124911D089510E0C2E6D0E00F
:101EF00004C0FE010E944D0F2196C336D107C9F7D9
:041F0000F894FFCF83
:101F040000000000A10201022E02EE025F023D0267
:101F140051020000000027030102BA0326038303D1
:101F240099030E036E616E00696E66006F7666003B
:101F34004750524D430047504747410041542B43BB
:101F44004D47463D310D004154202B20434D47530E
:101F5400203D20222B393178787878787878787811
:101F64007822000D0A004C61746974756465203D23
:101F74002000204C6F6E676974756465203D2000F5
:00000001FF
