:100000000C94DD010C940E020C940E020C940E0262
:100010000C940E020C940E020C940E020C940E0220
:100020000C940E020C942B070C942B070C942B07AA
:100030000C940E020C940E020C940E020C940E0200
:100040000C940E020C940E020C940E020C940E02F0
:100050000C940E020C940E020C940E020C94810669
:100060000C940E020C94F5060C94CB060C940E0224
:100070000C940E020C940E020C940E020C940E02C0
:100080000C940E020C940E020C940E020C940E02B0
:100090000C940E020C940E020C940E020C940E02A0
:1000A0000C940E020C940E020C940E020C940E0290
:1000B0000C940E020C940E020C940E020C940E0280
:1000C0000C940E020C940E020C940E020C940E0270
:1000D0000C940E020C940E020C940E020C940E0260
:1000E0000C940E020C94B4030C94970E0C94F2072B
:1000F0000C94FD070C94C8030C94560E0C9407083E
:100100000C9421050C9437050C94FA070C94710E8D
:100110000C947C0E0C94EE0D0C94AC0E0C94150803
:100120000C941B080C94C4040C9429080C945B04D4
:100130000C94A5030C944B0E0C9423080C940D08FE
:100140000C942D080C94A10E0C949C0C0C94300E65
:100150000C9478030C940C0E0C9444100C94900E98
:100160000C9411080C9433080C941F080C94F60797
:100170000C94D7070C94AC040C94D10D0C94C504CA
:100180000C94D6030C94120E0C94EE070C94DC071E
:100190000C9458050C940E040C94030800407A103B
:1001A000F35A00A0724E18090010A5D4E80000E828
:1001B0007648170000E40B54020000CA9A3B000086
:1001C00000E1F505000080969800000040420F0015
:1001D0000000A08601000000102700000000E803D6
:1001E000000000006400000000000A0000000000A1
:1001F0000100000000002C76D888DC674F0823DF60
:10020000C1DFAE59E1B1B796E5E3E453C63AE65132
:10021000997696E8E6C28426EB898C9B62ED407C59
:100220006FFCEFBC9C9F40F2BAA56FA5F490055AF5
:100230002AF75C936B6CF9676DC11BFCE0E40D471A
:10024000FEF520E6B500D0ED902E0300943577053D
:100250000080841E080000204E0A000000C80C33F5
:100260003333330F986E12831141EF8D2114893B84
:10027000E65516CFFEE6DB18D1844B381BF77C1D04
:10028000901DA4BBE424203284725E228100C9F157
:1002900024ECA1E53D2700000A0B02090C0D0E0815
:1002A000070304010000000000000000000000003F
:1002B000000000000000000000000000000000003E
:1002C00000001211100000000000000000000000FB
:1002D00000000000000000000000000000002000FE
:1002E0002300260029002C002F003200000100000E
:1002F00003010601090100002100240027002A0053
:100300002D003000330001010000040107010A0143
:1003100000002200250028002B002E0031003400B0
:1003200002010000050108010B010505050507058F
:1003300008080808020202020A0A08080404040461
:10034000010101010101010103030303030303038D
:10035000040707070C0C0C0C0C0C0C0C020202021C
:1003600006060606060606060B0B0B0B0B0B0B0B05
:1003700001021020200808102040102040800201B7
:10038000020108040201010204081020408080409C
:10039000201008040201800402018040201008049B
:1003A0000201080402010102040810204080010239
:1003B0000408102040803308441011241FBECFEFE2
:1003C000D1E2DEBFCDBF00E00CBF24E0A2E3B3E08A
:1003D00001C01D92A23BB207E1F713E0A0E0B2E03A
:1003E000EAE6FFE200E00BBF02C007900D92A233E5
:1003F000B107D9F711E0CCEDD1E000E006C02197BC
:100400000109802FFE010E947D15CB3DD10780E0C0
:100410000807A9F70E9498090C94A3170C940000F0
:100420000F931F93CF93DF93C0919104E2E9F4E01F
:10043000CD3211F0E1E9F4E08F0120E030E0A901D4
:10044000D801DD918D0180ED8D0F8A3090F4AAE006
:10045000B0E00E9419142D2FDD0F330B440B550B08
:10046000260F371F481F591F2053310941095109D1
:10047000E7CFA4E6B0E00E941914AB01BC01DF0194
:10048000819190ED980F9A30D0F38E3259F51196F4
:100490008C91119790ED980F9A3020F5082E000C52
:1004A000990BC0972AE0289F8001299F100D1124E5
:1004B000012E000C220B330B400F511F621F731FC4
:1004C00012968C9190ED980F9A3060F4082E000CE3
:1004D000990BC097092E000CAA0BBB0B480F591F94
:1004E0006A1F7B1FCD3239F4709560955095419508
:1004F0005F4F6F4F7F4FCB01BA01DF91CF911F91BB
:100500000F9108954F925F926F927F928F929F9278
:10051000AF92BF92CF92DF92EF92FF921F93CF9351
:10052000DF93C1E9D4E0FE01C12CD12C76011191F9
:1005300080ED810F8A30A8F4AAE0B0E0A70196010F
:100540000E941914C12E110FDD08EE08FF08C60E17
:10055000D71EE81EF91E80E3C81AD108E108F10889
:10056000E6CFC701B60124E630E040E050E00E944B
:100570005B159B01AC0160EA76E881E090E00E94A7
:100580004B154B015C019E01899190ED980F9A30BB
:10059000D0F38E3221F5E901219680E1482E87E2E1
:1005A000582E612C712CA99180ED8A0F8A30B8F4F5
:1005B0000A2E000CBB0BD097A30192010E94851557
:1005C000860E971EA81EB91EC301B2012AE030E0B4
:1005D00040E050E00E945B1529013A01E4CFC701D9
:1005E000B60124E630E040E050E00E945B1560E494
:1005F00072E48FE090E00E944B156B017C01C50115
:10060000B4016D5F7F4F8F4F9F4F26E030E040E099
:1006100050E00E945B15C701B601620F731F841F73
:10062000951FDF91CF911F91FF90EF90DF90CF90BA
:10063000BF90AF909F908F907F906F905F904F9002
:1006400008953FB7F89480917B0390917C03A0912B
:100650007D03B0917E0326B5A89B05C02F3F19F0FE
:100660000196A11DB11D3FBFBA2FA92F982F882732
:10067000BC01CD01620F711D811D911D42E0660F0D
:10068000771F881F991F4A95D1F708958F929F92DF
:10069000AF92BF92CF92DF92EF92FF924B015C013B
:1006A0000E9421036B017C010E9421036C197D09CA
:1006B0008E099F09683E734081059105A8F321E0EA
:1006C000821A9108A108B10888EEC80E83E0D81EEE
:1006D000E11CF11C81149104A104B10429F7FF90DD
:1006E000EF90DF90CF90BF90AF909F908F90089544
:1006F000AF92BF92CF92DF92EF92FF920F931F9330
:10070000CF93DF936C017B018B01040F151FEB016D
:100710005E01AE18BF08C017D10759F06991D60124
:10072000ED91FC910190F081E02DC6011995892B86
:1007300079F7C501DF91CF911F910F91FF90EF9055
:10074000DF90CF90BF90AF900895FC01538D448D02
:10075000252F30E0842F90E0821B930B541710F06C
:10076000CF96089501970895FC01918D828D981779
:1007700061F0A28DAE0FBF2FB11D5D968C91928D51
:100780009F5F9F73928F90E008958FEF9FEF089582
:10079000FC01918D828D981731F0828DE80FF11D4B
:1007A000858D90E008958FEF9FEF0895FC01918D66
:1007B000228D892F90E0805C9F4F821B91098F735F
:1007C000992708958FE793E00E94D60321E0892BB3
:1007D00009F420E0822F0895FC01A48DA80FB92F01
:1007E000B11DA35ABF4F2C91848D90E001968F7359
:1007F0009927848FA689B7892C93A089B1898C9178
:10080000837080648C93938D848D981306C00288C6
:10081000F389E02D80818F7D80830895EF92FF9290
:100820000F931F93CF93DF93EC0181E0888F9B8D13
:100830008C8D98131AC0E889F989808185FF15C0CD
:100840009FB7F894EE89FF896083E889F9898081F0
:100850008370806480839FBF81E090E0DF91CF91BF
:100860001F910F91FF90EF900895F62E0B8D10E0E1
:100870000F5F1F4F0F731127E02E8C8D8E110CC050
:100880000FB607FCFACFE889F989808185FFF5CF9B
:10089000CE010E94EC03F1CFEB8DEC0FFD2FF11D8B
:1008A000E35AFF4FF0829FB7F8940B8FEA89FB89D8
:1008B00080818062CFCFCF93DF93EC01888D882336
:1008C000B9F0AA89BB89E889F9898C9185FD03C0B3
:1008D000808186FD0DC00FB607FCF7CF8C9185FF98
:1008E000F2CF808185FFEDCFCE010E94EC03E9CFEE
:1008F000DF91CF91089580E090E0892B29F00E944C
:10090000E20381110E94000080E090E0892B49F011
:1009100080E090E0892B29F00E94000081110E9464
:10092000000080E090E0892B49F080E090E0892B86
:1009300029F00E94000081110E94000080E090E0F8
:10094000892B49F080E090E0892B29F00E9400007B
:1009500081110C9400000895209174033091750367
:100960002817390771F490917203809173039817D7
:1009700041F0E0917203F0E0EE5CFC4F808190E08A
:1009800008958FEF9FEF08950895EF92FF920F93D0
:100990001F93CF93DF93DC015C96ED90FC905D9705
:1009A000E114F10479F481E090E013969C938E9326
:1009B000129790E080E0DF91CF911F910F91FF900F
:1009C000EF9008955196ED91FC91529750968C912D
:1009D0005097982F90950FB75E962C915E97122F97
:1009E000127021FD6095F8942081112319F1282BB4
:1009F0002083E7012197F1F728E0462F50E030816E
:100A000060FF1AC0382B3083E7012197F1F7BA0154
:100A100075956795215089F7112381F0808189238D
:100A200080830FBF5C968D919C910197F1F781E0D7
:100A300090E0C1CF2923DCCF3923E5CF9081892BEA
:100A4000EFCF20917403309175032817390761F4B3
:100A5000809173032091720390E0805C9F4F821B12
:100A600091098F739927089590E080E0089520916F
:100A700074033091750328173907B9F49091720304
:100A800080917303981789F0E0917203F0E0EE5CB7
:100A9000FC4F80812091720330E02F5F3F4F2F7316
:100AA00033272093720390E008958FEF9FEF08950E
:100AB00090E080E00895FB0101900020E9F7319774
:100AC000AF01461B570BDC01ED91FC910280F381D5
:100AD000E02D19948F929F92AF92BF920F931F9324
:100AE000CF93DF93CDB7DEB7A1970FB6F894DEBFF3
:100AF0000FBECDBF19A2423008F44AE08E010F5D4F
:100B00001F4F842E912CB12CA12CA50194010E9481
:100B10005B15E62FB901CA01EA3004F5E05DD801A2
:100B2000EE938D01232B242B252B79F790E080E089
:100B3000109729F0BD018FE793E00E945B05A19615
:100B40000FB6F894DEBF0FBECDBFDF91CF911F91DE
:100B50000F91BF90AF909F908F900895E95CDFCF89
:100B600062E372E00C945B050F931F93CF93DF93C6
:100B7000EC010E945B058C01CE010E94B005800F44
:100B8000911FDF91CF911F910F9108950F931F93A4
:100B9000CF93DF93EC0188819981009759F02A81E6
:100BA0003B812617370730F081E0DF91CF911F910D
:100BB0000F9108958B016F5F7F4F0E94B2160097CF
:100BC00059F0998388831B830A832C813D81232BD1
:100BD00059F7FC011082E8CF80E0E7CFEF92FF9257
:100BE0000F931F93CF93DF936115710541F480E05C
:100BF000DF91CF911F910F91FF90EF9008954115D4
:100C00005105B1F07B01EC010C811D81040F151F12
:100C1000B8010E94C605882351F3288139818C814F
:100C20009D81B701820F931F0E949C171D830C8327
:100C300081E0DECFCF93DF93EC018881998100972B
:100C400011F00E942916198218821D821C821B82B3
:100C50001A82DF91CF910895CF92DF92EF92FF92A7
:100C60000F931F93CF93DF93CDB7DEB7A1970FB646
:100C7000F894DEBF0FBECDBF7C01CB01BA01F701F6
:100C80001182108213821282158214828E010F5FEC
:100C90001F4F26E048E00E9460106C01009771F041
:100CA000FC0101900020E9F731978F01081B190B17
:100CB000B801C7010E94C605811112C0C7010E9478
:100CC0001A06A1960FB6F894DEBF0FBECDBFDF9116
:100CD000CF911F910F91FF90EF90DF90CF900895EB
:100CE000F70115830483B601808191810E949C17CE
:100CF000E8CFFC0180819181009711F00C942916B6
:100D000008951F920F920FB60F9211242F933F93C5
:100D10008F939F93AF93BF938091770390917803C4
:100D2000A0917903B0917A033091760323E0230FE9
:100D30002D3758F50196A11DB11D209376038093A0
:100D4000770390937803A0937903B0937A0380910B
:100D50007B0390917C03A0917D03B0917E0301966B
:100D6000A11DB11D80937B0390937C03A0937D0311
:100D7000B0937E03BF91AF919F918F913F912F913F
:100D80000F900FBE0F901F90189526E8230F029624
:100D9000A11DB11DD2CF1F920F920FB60F92112439
:100DA0000BB60F922F933F934F935F936F937F9365
:100DB0008F939F93AF93BF93EF93FF938FE793E04E
:100DC0000E94EC03FF91EF91BF91AF919F918F91A2
:100DD0007F916F915F914F913F912F910F900BBE3B
:100DE0000F900FBE0F901F9018951F920F920FB685
:100DF0000F9211240BB60F922F938F939F93EF9323
:100E0000FF93E0918F03F09190038081E09195032F
:100E1000F091960382FD1DC09081809198038F5FB1
:100E20008F7320919903821741F0E0919803F0E0CD
:100E3000E158FC4F958F80939803FF91EF919F911C
:100E40008F912F910F900BBE0F900FBE0F901F90A0
:100E500018958081F2CF1F920F920FB60F92112436
:100E60000BB60F922F933F934F935F936F937F93A4
:100E70008F939F93AF93BF93EF93FF93E09174038E
:100E8000F0917503309749F0A685B7858585968DD5
:100E900091FF16C09C918923B1F4FF91EF91BF910E
:100EA000AF919F918F917F916F915F914F913F9102
:100EB0002F910F900BBE0F900FBE0F901F901895A3
:100EC0009C91892351F7A389B4899C918589809548
:100ED00089238C93868997890197F1F7608D718DAD
:100EE000A685B785558538E020E0CB010197F1F75D
:100EF000822F90E095958795282F4C91452309F0F6
:100F00002068315091F7868D81FD20958091730383
:100F100090E001968F73992730917203381799F0FA
:100F2000A0917303B0E0AE5CBC4F2C93809373032D
:100F3000828D938D0197F1F7A389B4898C9195895E
:100F4000892B8C93AACF868D8160868FF1CF282F35
:100F500030E0F901EA56FD4F9491F901E059FC4F58
:100F60004491265D3C4FF9012491222309F435C0B8
:100F7000992311F191509231F8F4E92FF0E088278C
:100F8000EB53F84F8F4F0C947D15F607FA07D707F0
:100F9000EE07F207DC07FD07030807080D08110834
:100FA00015081B081F08DC07230829082D08809155
:100FB00080008F7780938000E22FF0E0EE0FFF1F1C
:100FC000E05FFC4FA591B4918FB7F894EC9161115B
:100FD00048C040954E234C938FBF08958091800068
:100FE0008F7DE8CF80918000877FE4CF84B58F77B5
:100FF00084BDE2CF84B58F7DFBCF8091B0008F7729
:101000008093B000D9CF8091B0008F7DF9CF8091CF
:1010100090008F7780939000CFCF809190008F7D4C
:10102000F9CF80919000877FF5CF8091A0008F77D6
:101030008093A000C1CF8091A0008F7DF9CF8091D7
:10104000A000877FF5CF809120018F7780932001CA
:10105000B3CF809120018F7DF9CF80912001877FD0
:10106000F5CF4E2BB8CF0F931F93CF93DF931092F2
:1010700082031092810308EE13E020E030E0009339
:10108000830310938403209385033093860382E1C6
:1010900092E09093800380937F0385EC90E090939F
:1010A0008C0380938B0384EC90E090938E03809369
:1010B0008D0380EC90E09093900380938F0381ECFC
:1010C00090E0909392038093910382EC90E0909350
:1010D00094038093930386EC90E09093960380931F
:1010E0009503109298031092990310929A0310920C
:1010F0009B034FEF5FEFBA0140933B0450933C04D6
:1011000060933D0470933E04109243041092440493
:1011100010924504109246048FEF99ECAAE9BBE3C4
:1011200080934B0490934C04A0934D04B0934E04D1
:101130008093530490935404A0935504B0935604A1
:1011400080935B0490935C04A0935D04B0935E0471
:101150008093630490936404A0936504B093660441
:1011600080936B0490936C04A0936D04B0936E0411
:1011700040937304509374046093750470937604E1
:101180008FEF90E090937C0480937B0440937F04E6
:101190005093800460938104709382044093870489
:1011A000509388046093890470938A0410928F048A
:1011B0001092900482E08093A0041092A1041092F7
:1011C000A2041092A3041092A4041092A5041092F9
:1011D000A6041092A7041092A9041092A8041092D9
:1011E000AB041092AA041092910410921F04109262
:1011F0001E040093200410932104209322043093B2
:10120000230484E292E090931D0480931C041092C6
:101210003304109232041092350410923404109268
:1012200037041092360410923904109238046091F9
:101230003A046E7F6D7F60933A046695617081E039
:1012400068278AE00E94A7074AE753E0FA01649101
:1012500084E393E0FC012491222399F030E0220FF3
:10126000331FF901EA50FD4FA591B491F901E05FF8
:10127000FC4F259134912FB7F8943C91632B6C93DC
:101280002FBFFA01449140932C04FC018491E82F74
:10129000F0E0EE0FFF1FE05FFC4F8591949190937B
:1012A0002E0480932D0409E713E0F8012491C3E391
:1012B000D3E0FE0184918823C9F090E0880F991F44
:1012C000FC01EA50FD4FA591B491FC01E05FFC4F99
:1012D000459154913FB7F8949C91822F8095982323
:1012E0009C93FA019081892380833FBF80913A04C7
:1012F00081FD04C061E089E00E94A70789E0809336
:101300002804F801049100932904FE01C491EC2FF4
:10131000F0E0EE0FFF1FE452FD4F85919491909302
:101320002B0480932A04DF91CF911F910F91089590
:10133000CF93DF93CDB7DEB763970FB6F894DEBFD8
:101340000FBECDBF789484B5826084BD84B58160C2
:1013500084BD85B5826085BD85B5816085BD809180
:101360006E00816080936E001092810080918100F8
:1013700082608093810080918100816080938100F0
:10138000809180008160809380008091B1008460B2
:101390008093B1008091B00081608093B000809113
:1013A0009100826080939100809191008160809390
:1013B0009100809190008160809390008091A100C5
:1013C00082608093A1008091A10081608093A10040
:1013D0008091A00081608093A000809121018260B3
:1013E000809321018091210181608093210180916E
:1013F000200181608093200180917A008460809335
:101400007A0080917A00826080937A0080917A00DD
:10141000816080937A0080917A00806880937A005E
:101420001092C100109237041092360410923504C5
:101430001092340410923304109232048DE991E03A
:1014400090933904809338048091280496EF980F84
:10145000943048F02EEC280F243028F022EC280F8E
:10146000283008F061C02DEB30E030933304209336
:1014700032042BE931E030933504209334042CE21C
:1014800031E03093370420933604943050F02EEC42
:10149000280F243030F022EC280FF0E0E0E0283074
:1014A00010F4E8E6F0E02081943028F032EC380FB8
:1014B000383008F4F0C031E0232B943048F09EEC33
:1014C000980F943028F08E53F0E0E0E0883010F46C
:1014D000E8E6F0E020832091280436EF320F343024
:1014E00008F4DBC08EEC820F843008F4D6C082ECA6
:1014F000820F883008F0D4C08DE690E090933004DD
:1015000080932F04343008F0CEC02650330B81E096
:1015100001C0880F2A95EAF780933104809138043E
:10152000909139040197F1F7809136049091370436
:10153000892B49F1E0917403F091750324E0EC31BB
:10154000F20709F1309739F0A389B4899C91858914
:10155000809589238C9380913A048E7F80933A04FE
:1015600010927303109272038CE194E090937503D0
:1015700080937403E0912F04F09130048081909166
:101580003104892B8083E0918F03F091900382E0F6
:101590008083E0918B03F0918C031082E0918D03A6
:1015A000F0918E038FEC808310929703E091930368
:1015B000F091940386E08083E0919103F09192038F
:1015C000808180618083E0919103F091920380811A
:1015D00088608083E0919103F0919203808180681C
:1015E0008083E0919103F091920380818F7D8083CD
:1015F00065E372E08FE793E00E94B4056EE372E06A
:101600008FE793E00E94B4058FE793E00E94B00556
:1016100064E670E080E090E00E94460360E070E0E5
:10162000CB016B017C01F7FAF094F7F8F0949B0181
:10163000AC010E94F51287FF4BC06C2CDB8A0E2D8B
:101640007F2C812C912C54018FE793E00E94D603CC
:10165000181619066CF48FE793E00E94B4038335E3
:10166000910509F441C0CCF58235910509F4FEC419
:101670008CE194E00E942105181619064CF48CE1C7
:1016800094E00E943705682F8FE793E00E940E04D4
:101690000E947B04D9CF34E00FCF8BE690E02ECFB1
:1016A00090E080E02BCF88E0223309F435CF84E04E
:1016B000233309F431CF82E0243309F42DCF82ECB7
:1016C000820F883018F42E53330B21CF81E024CFC2
:1016D000612C1B8A00E0712CB4CF8237910509F48C
:1016E000C5C48337910521F665E572E08CE194E08D
:1016F0000E94B40568EE73E080E090E00E9446032B
:101700006FE572E08CE194E00E94B40568EE73E04E
:1017100080E090E00E9446038FE793E00E94B005CE
:1017200068E772E08FE793E00E94B4056EE372E031
:101730008FE793E00E94B40561E972E08FE793E0E0
:101740000E94B4058FE793E00E94D603892B09F429
:1017500031C38FE793E00E94B403182F8091A40453
:101760009091A504A091A604B091A7040196A11D93
:10177000B11D8093A4049093A504A093A604B093F4
:10178000A704143209F4F3C2E091A20415324CF418
:101790001A3019F01D3009F0F8C2EF3068F0E12C72
:1017A000CBC01A32D1F31C3209F0EFC280918F0402
:1017B000812780938F04F1CF8091A104F0E0EF5650
:1017C000FB4F1082E0909004EE2009F488C1209134
:1017D0009104822F022E000C990B3FEB320F363012
:1017E00008F009C1C7978295807F90919204292FB4
:1017F000092E000C330B4FEB490F463008F003C1A4
:1018000027533109820F90918F0489135EC1E090B4
:10181000A304EE2021F28091A8049091A9040196DE
:101820009093A9048093A8048091830490918404E8
:10183000A0918504B091860480937F0490938004E6
:10184000A0938104B093820480918B0490918C04C6
:10185000A0918D04B0918E048093870490938804A6
:10186000A0938904B0938A048091A004882309F48A
:10187000D3C0813009F060C080913F049091400452
:10188000A0914104B091420480933B0490933C04A6
:10189000A0933D04B0933E04809147049091480486
:1018A000A0914904B0914A04809343049093440466
:1018B000A0934504B093460480914F049091500446
:1018C000A0915104B091520480934B0490934C0426
:1018D000A0934D04B0934E04809157049091580406
:1018E000A0915904B0915A048093530490935404E6
:1018F000A0935504B09356048091670490916804B6
:10190000A0916904B0916A04809363049093640485
:10191000A0936504B093660480916F049091700465
:10192000A0917104B091720480936B0490936C0445
:10193000A0936D04B0936E048091A1048F5F809397
:10194000A1041092A20481E01A3209F080E0809391
:101950009004EE2009F4F6CEC0904B04D0904C04D5
:10196000E0904D04F0904E042090530430905404C5
:10197000409055045090560460E070E08AE794E48B
:10198000EFEFCE16E9ECDE06EAE9EE06EBE3FE0643
:1019900051F0C701B6010E94FC1220E034E244E796
:1019A00059E40E94A014609304027093050280938E
:1019B00006029093070260E070E08AE794E4FFEF8C
:1019C000CF16F9ECDF06FAE9EF06FBE3FF0651F06C
:1019D000C201B1010E94FC1220E034E244E759E464
:1019E0000E94A0146093000270930102809302028F
:1019F00090930302A7CE2156263018F487559109FB
:101A0000F2CEC097F0CE9156963018F42755310992
:101A1000F9CE20533109F6CE80915F049091600495
:101A2000A0916104B091620480935B0490935C0484
:101A3000A0935D04B0935E0480913F0490914004B4
:101A4000A0914104B091420480933B0490933C04E4
:101A5000A0933D04B0933E0480914F0490915004B4
:101A6000A0915104B091520480934B0490934C0484
:101A7000A0934D04B0934E04809157049091580464
:101A8000A0915904B0915A04809353049093540444
:101A9000A0935504B093560480917D0490917E04E8
:101AA00090937C0480937B048091770490917804D8
:101AB000A0917904B0917A04809373049093740494
:101AC000A0937504B093760437CF8091AA049091C7
:101AD000AB0401969093AB048093AA0460CE81116D
:101AE0001DC0A1E9B4E046EA52E09D01F9018191EF
:101AF0009F01882309F4C1C2FA019191AF018917AE
:101B0000A9F3ECEAF2E08D91882309F4BAC291912D
:101B10008917C9F382E08093A0040ECFE091A0045E
:101B2000E23009F43CCE90919104992309F437CE28
:101B300020E2E29FF0011124E82B3197E932F10510
:101B400008F0FACE8827E855F24F8F4F0C947D1598
:101B5000EE0D120E300E4B0E560E900E970EA10E7D
:101B6000AC0E9C0C9C0C9C0C9C0C9C0C9C0C9C0C23
:101B70009C0C9C0C9C0C9C0C9C0C9C0C9C0C9C0C25
:101B80009C0C9C0C9C0C9C0C9C0C9C0C9C0C9C0C15
:101B9000EE0D0C0E120E300E4B0E560E710E7C0E0C
:101BA000D10DE1E9F4E020E030E0A901D19080ED31
:101BB0008D0D8A3008F0ABC0AAE0B0E00E94191485
:101BC0002D2DDD0C330B440B550B260F371F481FF3
:101BD000591F2053310941095109E8CF0E941002D1
:101BE00060933F04709340048093410490934204B7
:101BF0002FB7F8948091770390917803A09179039F
:101C0000B0917A032FBF8093830490938404A093B0
:101C10008504B093860490CE81E0913409F484C0A9
:101C200080E082C00E94820260934F04709350044F
:101C300080935104909352042FB7F89480917703C6
:101C400090917803A0917903B0917A032FBF80938C
:101C50008B0490938C04A0938D04B0938E046CCE6F
:101C6000933509F09CCD80914F0490915004A09140
:101C70005104B0915204B095A095909581959F4FD5
:101C8000AF4FBF4F80934F0490935004A0935104E3
:101C9000B093520451CE0E94820260935704709315
:101CA00058048093590490935A0446CE973509F00E
:101CB00076CD8091570490915804A0915904B09129
:101CC0005A04B095A095909581959F4FAF4FBF4F07
:101CD0008093570490935804A0935904B0935A04E6
:101CE0002BCE0E9410026093670470936804809367
:101CF000690490936A0420CE0E94100260936F04DE
:101D000070937004809371049093720415CE2093A5
:101D10004704309348044093490450934A040CCE3E
:101D200081E091330CF47CCF8093A30405CE81E94C
:101D300094E00E947E10992790937E0480937D0406
:101D4000FBCD0E9410026093770470937804809317
:101D5000790490937A04F0CD0E94100260935F049E
:101D6000709360048093610490936204E5CD1092B7
:101D7000A2041092A10410928F0482E08093A00428
:101D8000109290041092A304DDCCEE3040F481E078
:101D90008E0F8093A204F0E0EF56FB4F10838091EA
:101DA00090048111CFCC80918F04F82EF126F0920F
:101DB0008F04C8CC40910402509105026091060244
:101DC00070910702CE010D960E942C0640910002F0
:101DD000509101026091020270910302CE010796B8
:101DE0000E942C061A8219821C821B821E821D826E
:101DF0006AE070E0CE0101960E94C6058111B4C070
:101E0000CE0101960E941A0649895A896D857E8500
:101E1000CE0101960E94EE05811104C0CE0101960B
:101E20000E941A064CE050E06DEB72E0CE01019684
:101E30000E94EE05811104C0CE0101960E941A068F
:101E40004B855C856F817885CE0101960E94EE05F9
:101E5000811104C0CE0101960E941A064D815E8157
:101E600069817A818FE793E00E9478038FE793E09E
:101E70000E94B005CE0101960E94790668EE73E0DB
:101E800080E090E00E944603CE0107960E9479060A
:101E9000CE010D960E94790660E070E0CB019B01B7
:101EA000AC010E9446156AEC72E0811117C02FEF59
:101EB0003FEF4FE75FE7C501B4010E94461581116E
:101EC0005EC02FEF3FEF4FE75FE7C501B4010E940F
:101ED000F51218160CF053C06EEC72E08FE793E029
:101EE0000E945B058FE793E00E94B0056EE372E00D
:101EF0008FE793E00E94B40566ED72E08FE793E010
:101F00000E94B4056DEE72E08FE793E00E94B40585
:101F10006EE372E08FE793E00E94B4056CEF72E02D
:101F20008FE793E00E94B4056EE372E08FE793E0E1
:101F30000E94B4058FE793E00E94B00564E670E06C
:101F400080E090E00E9446036AE18CE194E00E9408
:101F5000C5048CE194E00E94B00568EE73E080E077
:101F600090E00E94460384CB8AE090E09E838D83BC
:101F700062EB72E089819A810E949C1745CF2FEF16
:101F80003FEF4FE75FE460E070E0CB010E94411556
:101F900018161CF462ED72E0A1CF2FEF3FEF4FE770
:101FA0005FEC60E070E0CB010E94F51287FDF2CF9C
:101FB00020E030E0A901CA01B9010E94F51287FFB3
:101FC00005C06DE28FE793E00E940E042AE037ED32
:101FD00043EA5BE3662D7B89802F972D0E943414A2
:101FE0001B012C010E9412156B017C010E94FA1248
:101FF0009B01AC01C201B1010E9433141B012C01F1
:102000004AE0C701B6010E946A056EE28FE793E0DD
:102010000E940E0420E030E040E251E4C201B10130
:102020000E945B131B012C010E9412156B01F12C05
:10203000E12C4AE0C701B6010E946A05C701B6015A
:102040000E94FA129B01AC01C201B1010E9433143B
:1020500020E030E040E251E40E945B130E94121540
:1020600090E080E04AE00E946A053CCF6FE173E0B7
:102070008CE194E00E94B40570CF21E02093A0048D
:102080005BCC1092A00458CC84E292E090931D04A3
:1020900080931C0480917403909175038C5194403B
:1020A00071F4E0912F04F09130049081809131041B
:1020B000809589238083109275031092740308958C
:1020C000EF920F931F93CF93DF93E80134E047FD26
:1020D00034E1042E000C550B57FF03C05195419578
:1020E0005109E32E022F242FAE010E94A410CE012D
:1020F000DF91CF911F910F91EF900895FC018827F8
:102100009927E89421912032E9F3293010F02E30FC
:10211000C8F32B3241F02D3239F4689404C00E9488
:102120009C10820F911D219120532A30C0F31EF480
:10213000909581959F4F08957AE0979F902D879F66
:10214000802D910D112408958F929F92AF92BF928E
:10215000CF92DF92EF92FF920F931F93CF93DF9373
:1021600000D000D000D0CDB7DEB76A01F22EB02E7D
:10217000102FFBE3AF2EA01608F41BE31F5F012F07
:1021800027E0AE014F5F5F4F0E941D12BC018981A5
:10219000982F9970913009F44EC09BE2E1FC04C085
:1021A0009E2D9170E0FC49C05E2D5071E82FE870C3
:1021B00083FF55C084E0911101C083E0EF2DE81B3F
:1021C0008F1508F0E0E0D6018E2F20E25523C9F1EB
:1021D000992329F0D6019C93C60101966C019601C2
:1021E0002D5F3F4FE2FE33C08EE4D6018C9391E425
:1021F00011969C93119712968C93D9018E2F90E291
:1022000081112AC0E20FF32FF11D10828EEF9FEF94
:1022100029960FB6F894DEBF0FBECDBFDF91CF91E8
:102220001F910F91FF90EF90DF90CF90BF90AF90F4
:102230009F908F9008959DE2B7CF90E2B5CF2D93F8
:1022400081508111FCCFCE0ED11CE0E0C1CF8EE6D3
:10225000D6018C9391E6CCCF9D938150D1CF482F5E
:10226000447082FF3DC084E0911101C083E08F156E
:1022700010F4EF2DE81BD6018E2F20E2552309F133
:10228000992329F0D6019C93C60101966C01960111
:102290002D5F3F4FE2FE1BC089E4D6018C938EE494
:1022A00011968C93119786E412968C93D9018E2FF8
:1022B00090E2882309F4A6CF9D938150FACF2D9305
:1022C00081508111FCCFCE0ED11CE0E0D9CF89E640
:1022D000D6018C938EE611968C93119786E6E4CF07
:1022E0009B0177FF02C030E020E0A1E0B0E0911157
:1022F00002C0B0E0A0E0F9013196AE0FBF1F8B2CF9
:10230000912CBB2009F461C05401EFEFAE1ABE0A54
:10231000AA0DBB1DFA161B0619F014F04F2D4A1B0F
:10232000511188C0E3FC59C07601A42FB0E2A1117D
:102330004FC0C40ED11C992309F45BC040E0D60104
:102340001196F60190836D01552309F448C0012FC1
:10235000060F9A81582F507184FF03C0913309F4FE
:10236000015010160CF047C0093008F008E0EEE20A
:10237000FE2E5B01A01AB108850191948194910809
:102380002F3F320729F4D601FC92F60131966F01F6
:102390006217730794F1021713077CF5DB01A21B88
:1023A000B30BAA24A394B12CAC0EBD1EAA0DBB1D69
:1023B00011968C9121503109D601119628153905B5
:1023C000F4F0F60180836D01DBCFB12CA12CA0CFFE
:1023D000F701B1937F01A150AACF9111B0CFD601DF
:1023E000942F50E302C05D9391509111FCCFC40E25
:1023F000D11C40E0ACCF01E0BACF80E3DBCF621765
:10240000730731F4963388F4953311F4552369F04A
:10241000F6018083FD01842F90E2811108C0A40F92
:10242000B11D1C9290E080E0F3CE81E3F1CF919357
:102430008150F3CF911183CF8ACF283008F027E065
:102440003327DA01990F311D87FD916000966105F0
:10245000710539F432602E5F3D9330E32A95E1F740
:1024600008959F3F30F080387105610509F03C5FA9
:102470003C5F3D93913008F08068911DDF93CF93CE
:102480001F930F93FF92EF92192F987F9695E92F44
:1024900096959695E90FFF27EA50FE4F9927332727
:1024A000EE24FF24A701E70105900894079428F47F
:1024B000360FE71EF81E491F511D660F771F881F34
:1024C000991F0694A1F70590079428F4E70EF81ECB
:1024D000491F561FC11D770F881F991F661F06943D
:1024E000A1F70590079428F4F80E491F561FC71F3F
:1024F000D11D880F991F661F771F0694A1F70590BD
:10250000079420F4490F561FC71FD81F990F661F45
:10251000771F881F0694A9F784911095177041F0D2
:10252000D695C79557954795F794E7941A95C1F7AF
:10253000ECE9F1E0689415901591359165919591CC
:1025400005907FE27395E118F10A430B560BC90B16
:10255000D009C0F7E10CF11E431F561FC91FD01D43
:102560007EF4703311F48A95E6CFE894015030F090
:10257000080F0AF40027021708F4202F2395022FD2
:102580007A3328F079E37D932A95E9F710C07D939B
:102590002A9589F606949795679537951795179418
:1025A000E118F10A430B560BC90BD00998F023959B
:1025B0007E9173957A3308F070E37C932013B8F71B
:1025C0007E9170617D9330F0839571E37D9370E32C
:1025D0002A95E1F71124EF90FF900F911F91CF9171
:1025E000DF91992787FD909508950E94371308F48D
:1025F00081E00895E89409C097FB3EF4909580959A
:10260000709561957F4F8F4F9F4F9923A9F0F92FB8
:1026100096E9BB279395F695879577956795B79536
:10262000F111F8CFFAF4BB0F11F460FF1BC06F5F1C
:102630007F4F8F4F9F4F16C0882311F096E911C02E
:10264000772321F09EE8872F762F05C0662371F04F
:1026500096E8862F70E060E02AF09A95660F771F63
:10266000881FDAF7880F9695879597F90895990F3F
:102670000008550FAA0BE0E8FEEF16161706E8074C
:10268000F907C0F012161306E407F50798F0621B6D
:10269000730B840B950B39F40A2661F0232B242B42
:1026A000252B21F408950A2609F4A140A6958FEF61
:1026B000811D811D08950E946E130C94DF130E94EA
:1026C000D11338F00E94D81320F0952311F00C9408
:1026D000C8130C94CE1311240C9413140E94F013FD
:1026E00070F3959FC1F3950F50E0551F629FF00165
:1026F000729FBB27F00DB11D639FAA27F00DB11D7E
:10270000AA1F649F6627B00DA11D661F829F222706
:10271000B00DA11D621F739FB00DA11D621F839F8D
:10272000A00D611D221F749F3327A00D611D231F63
:10273000849F600D211D822F762F6A2F11249F57B1
:1027400050409AF0F1F088234AF0EE0FFF1FBB1FB4
:10275000661F771F881F91505040A9F79E3F510573
:1027600080F00C94C8130C9413145F3FE4F3983E6C
:10277000D4F3869577956795B795F795E7959F5F1D
:10278000C1F7FE2B880F911D9695879597F90895AF
:1027900097F99F6780E870E060E008959FEF80EC14
:1027A000089500240A9416161706180609060895B7
:1027B00000240A9412161306140605060895092E1D
:1027C0000394000C11F4882352F0BB0F40F4BF2B8C
:1027D00011F460FF04C06F5F7F4F8F4F9F4F0895CC
:1027E00057FD9058440F551F59F05F3F71F04795C2
:1027F000880F97FB991F61F09F3F79F087950895A7
:10280000121613061406551FF2CF4695F1DF08C0C5
:10281000161617061806991FF1CF869571056105E2
:1028200008940895E894BB2766277727CB0197F98A
:1028300008950E942414A59F900DB49F900DA49F0D
:10284000800D911D11240895A29FB001B39FC00176
:10285000A39F700D811D1124911DB29F700D811DCC
:102860001124911D08955058BB27AA270E944B148C
:102870000C94DF130E94D11338F00E94D81320F07B
:1028800039F49F3F19F426F40C94CE130EF4E0951E
:10289000E7FB0C94C813E92F0E94F01358F3BA1702
:1028A000620773078407950720F079F4A6F50C9466
:1028B00012140EF4E0950B2EBA2FA02D0B01B901C6
:1028C00090010C01CA01A0011124FF27591B99F0A6
:1028D000593F50F4503E68F11A16F040A22F232FB2
:1028E000342F4427585FF3CF469537952795A79502
:1028F000F0405395C9F77EF41F16BA0B620B730BA9
:10290000840BBAF09150A1F0FF0FBB1F661F771F19
:10291000881FC2F70EC0BA0F621F731F841F48F4CE
:10292000879577956795B795F7959E3F08F0B0CF57
:102930009395880F08F09927EE0F9795879508953E
:102940000E94B4140C94DF130E94D81358F00E9414
:10295000D11340F029F45F3F29F00C94C8135111B2
:102960000C9413140C94CE130E94F01368F3992363
:10297000B1F3552391F3951B550BBB27AA2762177B
:102980007307840738F09F5F5F4F220F331F441F88
:10299000AA1FA9F335D00E2E3AF0E0E832D09150BC
:1029A0005040E695001CCAF72BD0FE2F29D0660FA9
:1029B000771F881FBB1F261737074807AB07B0E8EC
:1029C00009F0BB0B802DBF01FF2793585F4F3AF0F2
:1029D0009E3F510578F00C94C8130C9413145F3F7C
:1029E000E4F3983ED4F3869577956795B795F79578
:1029F0009F5FC9F7880F911D9695879597F9089560
:102A0000E1E0660F771F881FBB1F621773078407FB
:102A1000BA0720F0621B730B840BBA0BEE1F88F70A
:102A2000E09508950E94F81388F09F5798F0B92F09
:102A30009927B751B0F0E1F0660F771F881F991FF3
:102A40001AF0BA95C9F714C0B13091F00E9412146F
:102A5000B1E008950C941214672F782F8827B85F7F
:102A600039F0B93FCCF3869577956795B395D9F74B
:102A70003EF490958095709561957F4F8F4F9F4F55
:102A800008950E94371308F48FEF08950E943713BA
:102A9000880B990B0895DB018F939F930E94191463
:102AA000BF91AF91A29F800D911DA39F900DB29FEA
:102AB000900D11240895A1E21A2EAA1BBB1BFD0143
:102AC0000DC0AA1FBB1FEE1FFF1FA217B307E4070D
:102AD000F50720F0A21BB30BE40BF50B661F771F65
:102AE000881F991F1A9469F7609570958095909545
:102AF0009B01AC01BD01CF010895EE0FFF1F881FA0
:102B00008BBF0790F691E02D1994B7FF0C94191420
:102B10000E941914821B930B08950F931F93CF9358
:102B2000DF938230910510F482E090E0E091B004F0
:102B3000F091B10430E020E0B0E0A0E0309799F4EB
:102B40002115310509F44AC0281B390B2430310501
:102B5000D8F58A819B816115710589F1FB01938309
:102B60008283FE0111C04081518102811381481787
:102B70005907E0F04817590799F4109761F0129639
:102B80000C93129713961C933296CF01DF91CF913D
:102B90001F910F9108950093B0041093B104F4CFE6
:102BA0002115310551F04217530738F0A901DB0117
:102BB0009A01BD01DF01F801C1CFEF01F9CF909378
:102BC000B1048093B004CDCFFE01E20FF31F8193D7
:102BD00091932250310939832883D7CF2091AE04B5
:102BE0003091AF04232B41F420910A0230910B0263
:102BF0003093AF042093AE04209108023091090273
:102C00002115310541F42DB73EB740910C0250918A
:102C10000D02241B350BE091AE04F091AF04E217D6
:102C2000F307A0F42E1B3F0B2817390778F0AC01EF
:102C30004E5F5F4F2417350748F04E0F5F1F5093CC
:102C4000AF044093AE04819391939FCFF0E0E0E016
:102C50009CCFCF93DF930097E9F0FC01329713826A
:102C60001282A091B004B091B104ED0130E020E0F7
:102C70001097A1F420813181820F931F2091AE041F
:102C80003091AF042817390709F061C0F093AF0401
:102C9000E093AE04DF91CF910895EA01CE17DF07EC
:102CA000E8F54A815B819E0141155105B1F7E901C3
:102CB000FB83EA8349915991C40FD51FEC17FD0797
:102CC00061F4808191810296840F951FE9019983B7
:102CD0008883828193819B838A83F0E0E0E012966F
:102CE0008D919C9113970097B9F52D913C91119777
:102CF000CD010296820F931F2091AE043091AF0454
:102D00002817390739F6309751F51092B10410920F
:102D1000B004B093AF04A093AE04BCCFD383C283FE
:102D200040815181840F951FC817D90761F44E5F08
:102D30005F4F88819981480F591F518340838A8151
:102D40009B81938382832115310509F0B0CFF093E5
:102D5000B104E093B0049ECFFD01DC01C0CF13822B
:102D60001282D7CF4F925F926F927F928F929F92F3
:102D7000AF92BF92CF92DF92EF92FF920F931F9389
:102D8000CF93DF938C01009799F4CB01DF91CF9122
:102D90001F910F91FF90EF90DF90CF90BF90AF9079
:102DA0009F908F907F906F905F904F900C948D15B7
:102DB000FC01E60FF71F9C0122503109E217F307CF
:102DC00008F4AEC0D901CD91DC911197C617D70791
:102DD00020F1C530D10578F0CE010497861797070A
:102DE00050F0C61BD70B2297C193D1936D937C9360
:102DF000CF010E942916C801DF91CF911F910F9139
:102E0000FF90EF90DF90CF90BF90AF909F908F900A
:102E10007F906F905F904F9008955B01AC1ABD0A50
:102E20004C018C0E9D1EA091B004B091B104512CA8
:102E3000412CF12CE12C109731F58091AE0490914A
:102E4000AF048815990509F05CC04616570608F0CE
:102E500058C08091080290910902009741F48DB703
:102E60009EB740910C0250910D02841B950BE81700
:102E7000F90708F055C0F093AF04E093AE04F901F0
:102E800071836083B8CF8D919C91119712966C904D
:102E9000129713967C901397A815B90559F56C01F4
:102EA00042E0C40ED11CCA14DB0420F1AC014A1963
:102EB0005B09DA011296159780F062827382518362
:102EC0004083D9016D937C93E114F10471F0D70133
:102ED0001396FC93EE9312978ECF22968C0F9D1F24
:102EE000F90191838083F301EFCFF093B104E09374
:102EF000B00481CF4816590608F42C017D01D30196
:102F00009ACFCB010E948D157C01009749F0AE014C
:102F1000B8010E949317C8010E94291687016BCF40
:102F200010E000E068CFFB01DC0102C001900D92CF
:102F300041505040D8F70895FB01DC0101900D92FB
:102F40000020E1F7089511E0CCEDD1E000E006C0EB
:102F5000802FFE010E947D152196011DCD3DD107D8
:0A2F600080E00807A9F7F894FFCFFE
:102F6A0022AD14426CA9D7BF0000B2048000000051
:102F7A0000000E047803A5035B04D603B403C80358
:102F8A0000000000C50478035805C404210537056C
:102F9A00AC040D0A0057656C636F6D652E002E2E0A
:102FAA002E2E2E2E2E2E2E2E2E2E2E2E2E2E2E2E37
:102FBA002E2E2E2E0041542B434D47463D310041C3
:102FCA00542B434D47533D222B323534372A2A2A74
:102FDA002A2A2A2A2A220D0056656869636C652006
:102FEA004E616D653A20544E303142563233343593
:102FFA000056656869636C65206C6F636174696FFC
:10300A006E2E2E2E2E004750524D430047504747F2
:10301A0041004C617469747564653A20002C4C6FE8
:10302A006E6769747564653A20006E616E00696E38
:10303A0066006F766600546F74616C20446973741D
:10304A00616E636520436F766572656400446973D7
:10305A0074616E63653A2038306B6D005468652080
:10306A007370656564206F6620746865207665688C
:10307A0069636C652069732033356B6D2F68004175
:10308A00542B434E4D493D322C322C302C302C30AF
:02309A00000034
:00000001FF
